:10000000AEC20000C8C20000C6C20000C4C20000E8
:10001000C2C20000C0C20000BEC20000BCC20000DC
:10002000BAC20000B8C2000059C70000B4C2000044
:10003000B2C20000B0C20000AEC20000ACC20000FC
:10004000AAC20000A8C20000A6C20000A4C200000C
:10005000A2C20000A0C200009EC200009CC200001C
:100060009AC2000098C2000096C2000094C200002C
:1000700092C2000090C200008EC200008CC200003C
:100080008AC2000088C2000086C2000084C200004C
:1000900082C2000080C200007EC200007CC200005C
:1000A0007AC2000078C2000076C2000000000000A2
:1000B0000081811881810007000700147F147F14DC
:1000C000242A7F2A122313086462364955225000DD
:1000D00005030000001C2241000041221C001408FE
:1000E0003E081408083E08080050300000080808C0
:1000F0000808006060000020100804023E514945D5
:100100003E00427F400042615149462141454B310A
:100110001814127F1027454545393C4A494930019A
:10012000710905033649494936064949291E0036F1
:100130003600000056360000081422410014141442
:100140001414004122140802015109063249794170
:100150003E7E1111117E7F494949363E414141227F
:100160007F4141221C7F494949417F090909013EDC
:100170004149497A7F0808087F00417F41002040BB
:10018000413F017F081422417F404040407F020CE4
:10019000027F7F0408107F3E4141413E7F090909EB
:1001A000063E4151215E7F09192946464949493198
:1001B00001017F01013F4040403F1F2040201F3F81
:1001C0004038403F63140814630708700807615102
:1001D000494543007F41410002040810200041418D
:1001E0007F0004020102044040404040000102043C
:1001F0000020545454787F484444383844444420C0
:10020000384444487F3854545418087E0901020C7D
:100210005252523E7F0804047800447D4000204042
:10022000443D007F1028440000417F40007C0418BA
:1002300004787C0804047838444444387C1414144A
:1002400008081414147C7C080404084854545420EE
:10025000043F4440203C4040207C1C2040201C3C6B
:100260004030403C44281028440C5050503C4464DA
:10027000544C44000836410000007F000000413625
:1002800008001008081008000000000030034400B7
:1002900061006E006E0079002700730020004700A7
:1002A00032003900200047006500610072005300F1
:1002B00068006900660074006500720000001A039F
:1002C0004C0055004600410020004C0069006200CF
:1002D0007200610072007900000004030904090241
:1002E0002200010100C032090400000103000000E7
:1002F000092111010001223A0007058103080005C8
:100300001201100100000008EB034320010001026C
:10031000000105010904A1010901A1000930093109
:10032000093216E0FF26200036F0FF462000950334
:1003300075088102C00509190129081500250175F4
:100340000195088102750095018101C01200AE017E
:10035000A83F0120000221007F0222000700400187
:10036000D30000A100C801DA1201817F00A400A619
:1003700001D58001D9C201DB20018D1400AF00003E
:1003800000000081811881810007000700147F149C
:100390007F14242A7F2A12231308646236495522C7
:1003A000500005030000001C2241000041221C00F7
:1003B00014083E081408083E0808005030000008E1
:1003C00008080808006060000020100804023E5180
:1003D00049453E00427F4000426151494621414526
:1003E0004B311814127F1027454545393C4A49497D
:1003F0003001710905033649494936064949291E24
:100400000036360000005636000008142241001461
:10041000141414140041221408020151090632492F
:1004200079413E7E1111117E7F494949363E414155
:1004300041227F4141221C7F494949417F090909E5
:10044000013E4149497A7F0808087F00417F410009
:100450002040413F017F081422417F404040407FBF
:10046000020C027F7F0408107F3E4141413E7F091C
:100470000909063E4151215E7F091929464649492D
:10048000493101017F01013F4040403F1F20402092
:100490001F3F4038403F6314081463070870080783
:1004A0006151494543007F4141000204081020008A
:1004B00041417F00040201020440404040400001ED
:1004C00002040020545454787F484444383844444B
:1004D0004420384444487F3854545418087E090155
:1004E000020C5252523E7F0804047800447D4000C2
:1004F0002040443D007F1028440000417F40007CA4
:10050000041804787C0804047838444444387C1483
:10051000141408081414147C7C0804040848545467
:100520005420043F4440203C4040207C1C2040207C
:100530001C3C4030403C44281028440C5050503C57
:100540004464544C44000836410000007F00000021
:1005500041360800100808100800000000001124AF
:100560001FBECFEFDAE0DEBFCDBF11E0A0E0B1E00B
:10057000E6EAF0E202C005900D92A835B107D9F77E
:1005800025E0A8E5B1E001C01D92A738B207E1F768
:10059000ABD10C94511034CD8F929F92AF92BF92F9
:1005A000CF92DF92EF92FF920F931F93CF93DF933F
:1005B000C0916F05CC2321F0C73021F0C05D03C08E
:1005C000CEE401C0C2E560E080E00E94170C0E940A
:1005D0000C0C85E0C89F60011124E12CF12C80EA0D
:1005E000C81AD10888248394912CF601EE0DFF1DC2
:1005F000E455FF4FE491DE2DDD0FDD0FDD0FDF5CF5
:10060000A12CB12C0E2F10E0C4010A2C02C0880FBF
:10061000991F0A94E2F79801282339238217930738
:1006200041F461E06A0D8D2F0E94170C8C2F0E94FF
:10063000460C8FEFA81AB80A88E0A816B10421F773
:100640008FEFE81AF80A85E0E816F10471F6809158
:100650006605DF91CF911F910F91FF90EF90DF9092
:10066000CF90BF90AF909F908F900C94F40B81E04F
:1006700080937705089510927705089580E091E0C2
:10068000A2D7E2EEF0E0808184608083089580E06C
:1006900091E066C680910E0190910F01009729F0BC
:1006A000019790930F0180930E0108950F931F936C
:1006B00081E090E000906F0502C0880F991F0A94B6
:1006C000E2F7F901838384E090E0F801918380836D
:1006D00080E01F910F910895089510BA11BAEAE7CA
:1006E000F0E0808183688083EEE7F0E080818065C0
:1006F0008083ECE7F0E0808180648083089593E05C
:100700008F708064915081F080937C0020917A00FA
:10071000236420937A0020917A0026FDFCCF25E304
:100720002A95F1F70000EECF809178009091790042
:1007300008954C9B04C085E38A95F1F7000089B1C8
:100740008295817008959C0180916F05203691E01B
:10075000390748F4613F92E07907E0F4603C7105A5
:10076000F0F482E008952135324058F0613F92E084
:10077000790790F4603C710590F4809176058A5F6A
:100780000895613F92E0790748F4603C710538F4C0
:1007900084E0089581E0089585E0089583E0089558
:1007A000F894A8950FB6F894A89580916000886198
:1007B00080936000109260000FBE90E080E80FB65A
:1007C000F89480936100909361000FBE789469C3A0
:1007D00060E080E00E94170C0E940C0C20E040E0DA
:1007E0006FE780E00E94A40C61E081E00E94170C9A
:1007F00080E191E00C946F0C1F93CF93DF93E8DFBF
:1008000063E081E00E94170C80917705811103C09D
:1008100085E291E002C086E391E00E946F0CEEE574
:10082000F5E018E0DF01812F1D928A95E9F78091AC
:1008300071058F93809170058F93C9E4D1E0DF93A8
:10084000CF93FF93EF930E94790D65E082E3EFD79A
:100850008EE595E00E946F0CE7E6F5E0DF011D9262
:100860001A95E9F7809179058F93809178058F9398
:10087000DF93CF93FF93EF930E94790D65E082E0C1
:10088000D6D787E695E00E946F0CE2E7F5E084E0BA
:10089000DF011D928A95E9F780916F051F928F9372
:1008A00080E591E09F938F93FF93EF930E94790DE2
:1008B00067E082E0BCD783E591E00E946F0C67E0BF
:1008C00088E2B5D782E795E00E946F0C8DB79EB79E
:1008D00042960FB6F8949EBF0FBE8DBF80916605FD
:1008E000DF91CF911F9180C7109277058CE38093A1
:1008F00066054AD7F2DE1DDF8093760586E0FFDECF
:10090000909371058093700584E0F9DE90937905EA
:1009100080937805609170057091710514DF809364
:100920006F05843019F0CCECD2E002C0CCEFD3E0FC
:1009300037DF7894A8959DE088E10FB6F894A895E4
:10094000809360000FBE90936000A895F2DE8093C4
:10095000760586E0D4DE909371058093700584E07F
:10096000CEDE909379058093780560917005709143
:100970007105E9DE80936F05FE01099580E091E045
:1009800035D6D4D4E2CF292F332723303105E1F0F7
:1009900058F42130310599F02230310569F582E2B1
:1009A00090E02EED32E02CC02132310501F12232EF
:1009B000310511F58AE390E022E133E021C082E1C4
:1009C00090E020E033E01CC099278130910549F088
:1009D00028F0029789F4ECE8F2E005C0EAEDF2E0D5
:1009E00002C0EEEBF2E0849190E09F0109C089E043
:1009F00090E020EF32E004C080E090E020E030E0C2
:100A0000FA01318320830895CF92DF92EF92FF9213
:100A10000F931F93CF93DF93EC018B017A01CED11B
:100A2000811133C0E114F10439F0F7018081918123
:100A3000081B190BC80FD91FC12CD12C011511058A
:100A400019F18091E80085FD16C08091E8008E774D
:100A50008093E8006BD4E114F10449F0F701808140
:100A60009181C80ED91ED182C08285E00EC0A6D168
:100A7000882321F30AC089918093F1000150110964
:100A8000FFEFCF1ADF0ADACF80E0DF91CF911F911D
:100A90000F91FF90EF90DF90CF9008952091850502
:100AA000309186052617370748F06115710539F42E
:100AB0002091E8002E772093E80001C0B901FC01E5
:100AC00020E06115710579F180917E058823F1F1AF
:100AD0008530F1F18091E80083FD3CC08091E80011
:100AE00082FD2EC08091E80080FFEBCF2091F300C3
:100AF0008091F20090E0922B6115710551F08830E1
:100B0000910538F421912093F1006150710901960B
:100B1000F3CF21E0089709F020E08091E8008E777C
:100B20008093E800CECF2111CFCF0AC080917E05FF
:100B3000882361F0853061F08091E80083FD0AC070
:100B40008091E80082FFF2CF80E0089582E008956E
:100B500083E0089581E008956115710529F42091DD
:100B6000E8002B772093E800FC016115710541F145
:100B700080917E05882361F1853061F18091E800E4
:100B800083FD24C08091E80082FFEFCF2091F30025
:100B90008091F20090E0922B892B31F08091F1004E
:100BA00081936150710991F78091E8008B77809370
:100BB000E800DBCF80917E05882351F0853051F02D
:100BC0008091E80080FFF6CF80E0089581E00895ED
:100BD00082E0089583E0089520918505309186058F
:100BE0002617370748F06115710539F42091E800A0
:100BF0002E772093E80001C0B901FC0120E06115C7
:100C0000710591F180917E05882309F440C08530FB
:100C100009F43FC08091E80083FD3DC08091E80069
:100C200082FD2FC08091E80080FFE9CF2091F30082
:100C30008091F20090E0922B6115710559F0883097
:100C4000910540F424912093F1003196615071098F
:100C50000196F2CF21E0089709F020E08091E800AA
:100C60008E778093E800CBCF2111CCCF0AC0809142
:100C70007E05882361F0853061F08091E80083FD76
:100C80000AC08091E80082FFF2CF80E0089582E000
:100C9000089583E0089581E00895982F973068F5CE
:100CA0009093E900981739F07091EC002091ED00D5
:100CB0005091F00003C0242F762F50E021FD02C098
:100CC0009F5FECCF3091EB003E7F3093EB00309193
:100CD000ED003D7F3093ED003091EB0031603093BB
:100CE000EB007093EC002093ED005093F000209106
:100CF000EE0027FDE5CF80E008958F708093E90036
:100D000081E008950F931F93CF93DF93062FEC019B
:100D100010E0101771F16881611103C01F5F259603
:100D2000F8CF2C81A981BA819B81862F8F70873063
:100D300010F080E01FC0223010F442E001C046E015
:100D4000E8E0F0E020E0EA17FB0720F42F5FEE0F69
:100D5000FF1FF9CF2295207F422B50E4959F9001F1
:100D60001124661F6627661F622B97DF8111D6CF7D
:100D7000E0CF81E0DF91CF911F910F910895809195
:100D80007F0587FF11C08091E80082FD05C080913A
:100D90007E058111F8CF11C08091E8008B770BC0E0
:100DA00080917E05882349F08091E80080FFF8CF8C
:100DB0008091E8008E778093E80008952091E40008
:100DC0003091E50095E64091EC00842F817040FF62
:100DD00023C08091E80080FD1DC080917E0588239E
:100DE00099F0853099F08091EB0085FD11C040911C
:100DF000E4005091E5002417350729F3915011F0D4
:100E00009A01E1CF84E0089582E0089583E0089597
:100E100081E0089580E008954091E80042FFDDCF31
:100E200008950F931F93CF93DF934BD052D0C8ED0B
:100E3000D0E088818F7788838881806888838881E3
:100E40008F7D888319BC10927E0510927A051092CE
:100E50007C0510927B0500EE10E0F80180818B7F0D
:100E6000808388818160888342E060E080E015DFD4
:100E7000E1EEF0E080818E7F8083E2EEF0E0808121
:100E800081608083808188608083F80180818E7F8B
:100E90008083888180618883DF91CF911F910F913A
:100EA0000895E8EDF0E080818F7E8083E7EDF0E04B
:100EB00080818160808384E082BF81E080937D05B2
:100EC000B0CFE8EDF0E080818E7F80831092E20069
:100ED00008951092DA001092E10008951F920F9287
:100EE0000FB60F9211242F933F934F935F936F93FD
:100EF0007F938F939F93AF93BF93EF93FF938091D3
:100F0000E10082FF0AC08091E20082FF06C080916A
:100F1000E1008B7F8093E100BDDB8091DA0080FFF0
:100F20001DC08091D80080FF19C08091DA008E7FAB
:100F30008093DA008091D90080FF0CC080E189BDE8
:100F400082E189BD09B400FEFDCF81E080937E057A
:100F50008EDB04C019BC10927E058DDB8091E10010
:100F600080FF18C08091E20080FF14C08091E200F1
:100F70008E7F8093E2008091E20080618093E200A6
:100F80008091D80080628093D80019BC85E080935E
:100F90007E05CBD18091E10084FF2FC08091E200DB
:100FA00084FF2BC080E189BD82E189BD09B400FEC8
:100FB000FDCF8091D8008F7D8093D8008091E10093
:100FC0008F7E8093E1008091E2008F7E8093E2002B
:100FD0008091E20081608093E20080917A0588230D
:100FE00011F084E007C08091E30087FD02C081E03A
:100FF00001C083E080937E0598D18091E10083FF5A
:1010000022C08091E20083FF1EC08091E100877FB3
:101010008093E10082E080937E0510927A058091B2
:10102000E1008E7F8093E1008091E2008E7F8093CB
:10103000E2008091E20080618093E20042E060E0A3
:1010400080E02BDE72D1FF91EF91BF91AF919F9124
:101050008F917F916F915F914F913F912F910F9061
:101060000FBE0F901F9018951F93CF93DF93CDB7AE
:10107000DEB7AA970FB6F894DEBF0FBECDBFEFE77D
:10108000F5E08091F100819325E0E738F207C9F798
:10109000FEDA8091E80083FF30C180917F05909156
:1010A0008005953009F483C030F49130A9F168F0DF
:1010B000933091F122C1983009F4EFC0993009F4CE
:1010C000FBC0963009F019C194C0803821F08238F5
:1010D00009F013C108C080917B0590917C0599238C
:1010E00089F082600FC0809183058F70873008F08F
:1010F00004C18093E9008091EB0085FB882780F98B
:101100001092E9009091E800977F9093E800809317
:10111000F1001092F100CCC0282F2D7F09F0EDC016
:10112000882319F0823061F0E8C080918105813018
:1011300009F0E3C0933009F080E080937C052EC075
:101140008091810581112AC0809183058F702FEFD6
:10115000280F263008F0D1C08093E9002091EB00E1
:1011600020FF1CC0933021F48091EB00806214C0FA
:101170009091EB0090619093EB0021E030E0A901A9
:1011800002C0440F551F8A95E2F74093EA0010927F
:10119000EA008091EB0088608093EB001092E900F8
:1011A0008091E800877F8093E800E9DDA6C0811187
:1011B000A4C0109181051F778091E3008078812B76
:1011C0008093E3008091E800877F8093E800D7DD7B
:1011D0008091E80080FFFCCF8091E30080688093DD
:1011E000E300111102C082E001C083E080937E051C
:1011F00084C08058823008F080C080918105909131
:1012000082058C3D53E0950771F583E08A838AE27D
:1012100089834FB7F894DE01139620E03EE051E257
:10122000E32FF0E050935700E49120FF03C0E295D4
:10123000EF703F5FEF708E2F90E0EA3010F0C796AE
:1012400001C0C0968D939D932F5F243149F74FBF06
:101250008091E800877F8093E8006AE270E0CE0129
:1012600001961CDC14C06091830570918405AE0169
:101270004F5F5F4F88DBBC01892B09F43EC0909122
:10128000E800977F9093E80089819A81A5DC80919E
:10129000E8008B778093E80030C0803871F580914A
:1012A000E800877F8093E80080917A058093F100C1
:1012B0008091E8008E7777CF81111FC080918105E2
:1012C0009091820599270297C4F48091E800877F66
:1012D0008093E8008091810580937A0550DD8091AC
:1012E0007A05811106C08091E30087FD02C081E08C
:1012F00001C084E080937E05C1D98091E80083FF1E
:101300000AC08091E800877F8093E8008091EB001D
:1013100080628093EB00AA960FB6F894DEBF0FBEF2
:10132000CDBFDF91CF911F9108950895CF93809104
:101330007E05882399F0C091E900CF709091EC0070
:10134000892F817090FD80E8C82B1092E900809170
:10135000E80083FD89DECF70C093E900CF91089546
:101360006F927F928F929F92AF92BF92CF92DF92B5
:10137000EF92FF920F931F93CF93DF9300D01F92B2
:10138000CDB7DEB77C01ADB6BEB68091E80083FF75
:1013900003C1F701808190E020918305309184059D
:1013A0002817390709F0F8C080918005833009F4C7
:1013B0009AC030F4813071F0823009F4D1C0ECC0B1
:1013C0008A3009F4B5C08B3009F49EC0893009F029
:1013D000E3C04CC080917F05813A09F0DDC08DB635
:1013E0009EB61A82198280918105109182058B83A5
:1013F000F7018085482F50E08DB79EB7841B950B71
:101400000FB6F8949EBF0FBE8DBFEDB7FEB73196F5
:101410006F0160E070E0CF0165D34FEF410F8E01A7
:101420000F5F1F4F9601BE016D5F7F4FC7013ED911
:10143000F70186819781009721F0408550E0B60141
:1014400048D31092E9008091E800877F8093E800FC
:101450008B8181118093F10069817A81C6011EDB45
:101460008091E8008B778093E80037C080917F05FA
:10147000813209F091C08DB69EB60091850510911C
:10148000860570908105609082058DB79EB7801BA0
:10149000910B0FB6F8949EBF0FBE8DBFEDB7FEB790
:1014A00031966F018091E800877F8093E800B80152
:1014B000CF0152DB8091E8008E778093E80021E035
:1014C000711001C020E030E0021B130B2C0D3D1DFC
:1014D0004FEF460D672DC701FFD80FB6F8949EBE9B
:1014E0000FBE8DBE59C080917F05813A09F054C06E
:1014F0008091E800877F8093E8008091E80080FF7A
:10150000FCCFF701818540C080917F05813209F0D1
:1015100043C08091E800877F8093E80030DC9091A1
:10152000810581E0911101C080E0F701818734C01D
:1015300080917F05813281F58091E800877F8093DB
:10154000E8001DDC8091810590918205882736E0B6
:10155000969587953A95E1F7F701958784871CC0A2
:1015600080917F05813AC1F48091E800877F809364
:10157000E8008091E80080FFFCCFF7018485958525
:1015800096958795969587958093F1008091E800D0
:101590008E778093E800F3DB0FB6F894BEBE0FBEE3
:1015A000ADBE0F900F900F90DF91CF911F910F91D3
:1015B000FF90EF90DF90CF90BF90AF909F908F9073
:1015C0007F906F900895FC01399627E0DF011D920E
:1015D0002A95E9F721E0FC01218724EF31E03587E6
:1015E000248723E0248361E001968CCB5F926F9285
:1015F0007F928F929F92AF92BF92CF92DF92EF92A3
:10160000FF920F931F93CF93DF9300D01F92CDB71C
:10161000DEB77C01ADB6BEB680917E05843009F0A0
:1016200086C08091E4009091E500F7012285338522
:101630002817390709F47BC081818F708093E900F6
:101640008091E80085FF73C08DB69EB6408550E05E
:101650008DB79EB7841B950B0FB6F8949EBF0FBE37
:101660008DBFEDB7FEB731966F011B821A821982CA
:1016700060E070E0CF0136D28E010F5F1F4F960100
:1016800040E0BE016D5F7F4FC70110D8582EF701B3
:1016900084859585892B29F011E086859785892B8E
:1016A00009F010E0F701668077806114710481F021
:1016B00049815A81B301C601FFD101E0892B09F4A8
:1016C00000E0F701408550E0B601C30102D201C03D
:1016D00000E089819A81892BF1F0511004C0011139
:1016E00002C010FF18C0F70184859585978786870B
:1016F00081818F708093E9008B8181118093F1004B
:1017000069817A8140E050E0C6017ED98091E8008D
:101710008E778093E8008091E4009091E500F701D6
:10172000938782870FB6F8949EBE0FBE8DBE0FB60C
:10173000F894BEBE0FBEADBE0F900F900F90DF911C
:10174000CF911F910F91FF90EF90DF90CF90BF90BE
:10175000AF909F908F907F906F905F900895CF9300
:10176000C82F61D1811103C08C2FCF9178C1CF9147
:101770000895CF93C82F80E887D1811103C08C2FA3
:10178000CF9182C1CF910895FF920F931F93CF9372
:10179000DF93D82FECE4F3E0C4913AD18D2FDFDF53
:1017A00081111CC0D0E0EDE4F3E02097A9F0F490A3
:1017B0008F010E5F1F4F31968491DBDF81110EC0C8
:1017C000F801FF2039F0F8018491D3DFFA940F5F1C
:1017D0001F4FF4CF2197E9CF6BD180E0DF91CF91FC
:1017E0001F910F91FF900895CF93DF93B8DF811180
:1017F00010C080E449D181110CC0CCE5D1E08991C1
:1018000043D1811106C085E0CC35D807C1F750D14E
:1018100080E0DF91CF91089580E094E0ECE5F1E085
:10182000DF019C011D9221503040E1F7089590E0C6
:1018300020E8629F800D911D112490935D05809397
:101840005C05089520915C0530915D05C901880F04
:10185000892F881F990B91952A5F482F4795442718
:101860004795241B27FF10C0883060F4863060F451
:101870008F5F20E8829FC001112490935D058093C3
:101880005C0502C081E0089580E00895CF93C82FE1
:10189000D9DF813011F120915C0530915D05D901CE
:1018A000A45ABE4F45E0C49FC001112440E050E05F
:1018B000805A9109FC01E40FF51FE258FC4FE491B6
:1018C000ED934F5F5F4F45305105A1F72A5F3F4FC2
:1018D00030935D0520935C0580E0CF910895CF9310
:1018E000DF93EC018991882311F0D0DFFBCFDF91EA
:1018F000CF91089587FD26C0613420F5262F2695C7
:101900002695269530E0F901F695FE2FEE27F795FE
:10191000E795E80FF11DCF01019690935D05809347
:101920005C05E45AFE4F88E0289F6019112481E08D
:1019300090E001C0880F6A95EAF79081892B808337
:1019400080E0089581E008958F929F92AF92BF92B8
:10195000CF92DF92EF92FF920F931F93CF93DF937B
:10196000082FA62E142FB22E262F30E0281B310967
:101970008B2D90E0841B910937FF06C0319521958E
:10198000310999249A9402C09924939497FF06C030
:1019900091958195910988248A9402C08824839422
:1019A0007C01EE0CFF1C6901CC0CDD1C8217930737
:1019B0008CF4E701C21BD30B612F802F9BDF0A152C
:1019C000C9F0090DD7FD03C0180DCC19DD09CE0DE6
:1019D000DF1DF2CFEC01CC19DD09612F802F8ADFEA
:1019E0001B1541F0180D1C161D06ACF3090DCE0D8C
:1019F000DF1DF1CF80E0DF91CF911F910F91FF901C
:101A0000EF90DF90CF90BF90AF909F908F90089510
:101A10008CE08093B800E9EBF0E0808190818370E6
:101A2000892B808308958091B90087758093B900D0
:101A300084EA8093BC008091BC0087FFFCCF80913A
:101A4000B900887F883049F08091B900887F803163
:101A500021F08091B900887F089580E00895880F73
:101A60008093BB0084E88093BC008091BC0087FF1A
:101A7000FCCF8091B900887F883121F08091B90036
:101A8000887F089580E008958093BB0084E8809368
:101A9000BC008091BC0087FFFCCF8091B900887F9B
:101AA000883221F08091B900887F089580E0089500
:101AB00084E98093BC000895FB01DC0104C08D9192
:101AC0000190801921F441505040C8F7881B990BB0
:101AD0000895FB01DC0102C001900D92415050407D
:101AE000D8F70895DC0101C06D9341505040E0F7F4
:101AF0000895AEE0B0E0EEE7FDE0AAC20D891E89D0
:101B000086E08C831A8309838FEF9FE79E838D8302
:101B1000AE01475E5F4F6F89788DCE01019608D088
:101B2000EF81F885E00FF11F10822E96E4E0ACC241
:101B3000ABE0B0E0EDE9FDE07DC26C017B018A0124
:101B4000FC0117821682838181FFBFC1CE010196FD
:101B50003C01F6019381F70193FD859193FF8191FB
:101B60007F01882309F4ADC1853239F493FD859155
:101B700093FF81917F01853221F4B60190E0C0D1BD
:101B8000E8CF912C212C312CFFE1F315D8F08B32CA
:101B900079F038F4803279F08332A1F4232D20617A
:101BA0001DC08D3261F0803369F4232D216016C091
:101BB000832D8260382EE32DE4603E2E2AC0F32D63
:101BC000F8601DC037FC2DC020ED280F2A3040F0F2
:101BD0008E32B9F436FC75C1232D2064322E19C023
:101BE00036FE06C08AE0989E200D1124922E11C068
:101BF000EAE02E9E200D1124222EF32DF0623F2EBE
:101C000008C08C3621F4832D8068382E02C08836B7
:101C100041F4F70193FD859193FF81917F0181113B
:101C2000B3CF982F9F7D9554933028F40C5F1F4FAE
:101C30009FE399830DC0833631F0833771F083358C
:101C400009F055C020C0F801808189830E5F1F4FC5
:101C500088248394912C530112C02801F2E04F0E86
:101C6000511CF801A080B18036FE03C0692D70E0E0
:101C700002C06FEF7FEFC50138D14C018201F32D17
:101C8000FF773F2E15C0280122E0420E511CF801BB
:101C9000A080B18036FE03C0692D70E002C06FEFF6
:101CA0007FEFC50117D14C01F32DF0683F2E820163
:101CB00033FC19C0822D90E088169906A0F4B60175
:101CC00080E290E01DD12A94F5CFF50137FC859193
:101CD00037FE81915F01B60190E012D121102A9464
:101CE00021E0821A91088114910479F7E1C08436C9
:101CF00011F0893639F5F80137FE07C0608171812E
:101D0000828193810C5F1F4F08C060817181072E13
:101D1000000C880B990B0E5F1F4FF32DFF763F2EA3
:101D200097FF09C090958095709561957F4F8F4F73
:101D30009F4FF0683F2E2AE030E0A3011DD1882E8E
:101D4000861844C0853731F4232D2F7EB22E2AE029
:101D500030E025C0932D997FB92E8F36C1F018F44D
:101D6000883579F0AEC0803719F0883721F0A9C0E6
:101D7000E92FE061BE2EB4FE0DC0FB2DF460BF2E36
:101D800009C034FE0AC0292F2660B22E06C028E002
:101D900030E005C020E130E002C020E132E0F8018F
:101DA000B7FE07C060817181828193810C5F1F4FF4
:101DB00006C06081718180E090E00E5F1F4FA3013B
:101DC000DBD0882E8618FB2DFF773F2E36FE0DC008
:101DD000232D2E7FA22E891458F434FE0BC032FC22
:101DE00009C0832D8E7EA82E05C0B82CA32C03C05D
:101DF000B82C01C0B92CA4FE0FC0FE01E80DF11DE6
:101E00008081803321F49A2D997EA92E09C0A2FEEB
:101E100006C0B394B39404C08A2D867809F0B394B5
:101E2000A3FC10C0A0FE06C0B21480F4280C922CB3
:101E30009B180DC0B21458F4B60180E290E060D057
:101E4000B394F8CFB21418F42B1802C0982C212C9C
:101E5000A4FE0FC0B60180E390E052D0A2FE16C0EF
:101E6000A1FC03C088E790E002C088E590E0B601DD
:101E70000CC08A2D867851F0A1FE02C08BE201C011
:101E800080E2A7FC8DE2B60190E03AD0891430F4EC
:101E9000B60180E390E034D09A94F8CF8A94F301AD
:101EA000E80DF11D8081B60190E02AD08110F6CFB7
:101EB000222009F44ECEB60180E290E021D02A948F
:101EC000F7CFF6018681978102C08FEF9FEF2B96A7
:101ED000E2E1CCC0FC010590615070400110D8F7E0
:101EE000809590958E0F9F1F0895FC016150704062
:101EF00001900110D8F7809590958E0F9F1F08953F
:101F00000F931F93CF93DF93FB01238121FD03C028
:101F10008FEF9FEF2CC022FF16C04681578124818E
:101F200035814217530744F4A081B1819D012F5F91
:101F30003F4F318320838C93268137812F5F3F4F22
:101F40003783268314C08B01EC01FB010084F185EB
:101F5000E02D0995892BE1F6D80116968D919C917B
:101F60001797019617969C938E931697CE01DF9143
:101F7000CF911F910F910895FA01AA27283051F1AE
:101F8000203181F1E8946F936E7F6E5F7F4F8F4FAA
:101F90009F4FAF4FB1E03ED0B4E03CD0670F781F09
:101FA000891F9A1FA11D680F791F8A1F911DA11DEE
:101FB0006A0F711D811D911DA11D20D009F4689427
:101FC0003F912AE0269F11243019305D3193DEF6CF
:101FD000CF010895462F4770405D4193B3E00FD085
:101FE000C9F7F6CF462F4F70405D4A3318F0495D70
:101FF00031FD4052419302D0A9F7EACFB4E0A69553
:102000009795879577956795BA95C9F70097610574
:10201000710508959B01AC010A2E069457954795CA
:1020200037952795BA95C9F7620F731F841F951FBF
:10203000A01D08952F923F924F925F926F927F92D0
:102040008F929F92AF92BF92CF92DF92EF92FF92C8
:102050000F931F93CF93DF93CDB7DEB7CA1BDB0B74
:102060000FB6F894DEBF0FBECDBF09942A88398819
:1020700048885F846E847D848C849B84AA84B98420
:10208000C884DF80EE80FD800C811B81AA81B9812C
:10209000CE0FD11D0FB6F894DEBF0FBECDBFED0140
:0620A0000895F894FFCF43
:1020A6000081080000015801040000000000000043
:1020B60044616E6E79277320475320436F6E7665B1
:1020C600727465720055534220444953434F4E4E35
:1020D60045435445440055534220434F4E4E4543D5
:1020E6005445442020202020003078252E347800C6
:0820F6002564006765617200BA
:00000001FF
